:100000000C948B000C94AA000C94AA000C94AA00E7
:100010000C94AA000C94AA000C94AA000C94AA00B8
:100020000C94AA000C94AA000C94AA000C94AA00A8
:100030000C94AA000C94F9000C94AA000C94AA0049
:100040000C94AA000C94AA000C94AA000C94AA0088
:100050000C94AA000C94AA000C94AA000C94AA0078
:100060000C94AA000C94AA000C94AA000C94AA0068
:100070000C94AA000C94AA000C94AA000C94AA0058
:100080000C94AA000C94AA000C94AA0051029402A9
:1000900094029402940294029402940294029402B0
:1000A00094029402940294029402940294029402A0
:1000B0009402940294029402940294029402940290
:1000C0009402940294029402940294029402940280
:1000D0009402900294029402940294029402940274
:1000E0008902940294029402940294028D025502B1
:1000F00059025D026102650269026D0271027502B8
:10010000940294029402940294029402940279025A
:100110007D028102850211241FBECFEFD0E4DEBF35
:10012000CDBF11E0A0E0B1E0E0E8F6E000E00BBFF9
:1001300002C007900D92A231B107D9F721E0A2E1E8
:10014000B1E001C01D92A332B207E1F70E949E0206
:100150000C943E030C940000CF93C82F8A3019F4FE
:100160008DE00E94AC008091C00085FFFCCFC09361
:10017000C60080E090E0CF910895609300017093F5
:100180000101809302019093030160931301709326
:100190001401809315019093160108958BE08093CC
:1001A00081008DE790E0909389008093880082E041
:1001B00080936F001092850010928400809100015E
:1001C00090910101A0910201B0910301809313016C
:1001D00090931401A0931501B09316018FB7806816
:1001E0008FBF089510928100089581E080931701D8
:1001F00008951F920F920FB60F9211240BB60F9213
:100200002F933F934F935F936F937F938F939F931E
:10021000AF93BF93EF93FF938091130190911401DB
:10022000A0911501B09116010197A109B109809320
:10023000130190931401A0931501B0931601892B1B
:100240008A2B8B2B91F40E94F500809100019091F4
:100250000101A0910201B0910301809313019093D9
:100260001401A0931501B0931601FF91EF91BF9176
:10027000AF919F918F917F916F915F914F913F913E
:100280002F910F900BBE0F900FBE0F901F901895DF
:100290000F931F93CF93DF93B62FA72FF82FE92F3C
:1002A000022F132FD42FC52F04C0062F172FD82F9E
:1002B000C92F6B2F7A2F8F2F9E2F202F312F4D2F4D
:1002C0005C2F0E941303B02FA12FFD2FEC2F61157F
:1002D00071058105910549F7602F712F8D2F9C2F96
:1002E000DF91CF911F910F910895442349F021E0B0
:1002F00030E002C0220F331F6A95E2F7822B089587
:1003000021E030E002C0220F331F6A95E2F720950A
:100310008223089521E030E002C0220F331F6A9546
:10032000E2F78223089540E064E08FEF0E947501B8
:1003300088B9000086B160E080950E948A01811131
:1003400080C086B161E080950E948A0181117BC0E6
:1003500086B162E080950E948A01811176C086B1E3
:1003600063E080950E948A01811171C040E065E0E0
:100370008FEF0E94750188B9000086B160E080951A
:100380000E948A01811165C086B161E080950E945A
:100390008A01811160C086B162E080950E948A0165
:1003A00081115BC086B163E080950E948A01811152
:1003B00056C040E066E08FEF0E94750188B90000EA
:1003C00086B160E080950E948A0181114AC086B1A1
:1003D00061E080950E948A01811145C086B162E08A
:1003E00080950E948A01811140C086B163E08095AA
:1003F0000E948A0181113BC040E067E08FEF0E94BC
:10040000750188B9000086B160E080950E948A017C
:1004100081112FC086B161E080950E948A0181110F
:100420002AC086B162E080950E948A01811125C0B0
:1004300086B163E080950E948A018823F9F084E404
:10044000089581E3089584E3089587E308958AE297
:10045000089582E3089585E3089588E3089580E38D
:10046000089583E3089586E3089589E3089583E278
:10047000089581E4089582E4089583E40895CF9374
:10048000DF93EC010E949301209709F053C090E0A4
:100490008534910508F048C0FC01EA5BFF4F0C94DD
:1004A00035038FE18093120142C081E080931201F5
:1004B0003EC082E0809312013AC083E08093120133
:1004C00036C084E08093120132C085E0809312012F
:1004D0002EC086E0809312012AC087E0809312012B
:1004E00026C088E08093120122C089E08093120127
:1004F0001EC08AE0809312011AC08BE08093120123
:1005000016C08CE08093120112C08DE0809312011E
:100510000EC08EE0809312010AC01092120107C033
:100520008FE08093120103C08FEF809312018091BE
:10053000120182B9CE01DF91CF910895CF93DF935D
:1005400000D0CDB7DEB78FEF81B912B884B915B836
:1005500090EF97B99FE098B98AB91BB8E8E1F1E04C
:10056000FA83E983108282E090E0A0E0B0E081832A
:100570009283A383B48385839683A783B0878FE315
:1005800092E0928781876AE070E080E090E00E94CC
:10059000BD000E94CE0000E010E03BC0F801EE0F6D
:1005A000FF1F81E090E08C0F9D1FE80FF91FE08096
:1005B000F180D70115964D915D916D917C911897C1
:1005C00011968D919D910D90BC91A02D48175907C2
:1005D0006A077B0781F4D7011996ED91FC911A9770
:1005E0008C91082E000C990B0995F70180831582D8
:1005F000168217821086F70185819681A781B085C2
:100600000196A11DB11D85839683A783B0870F5FD7
:100610001F4F0115110511F2809117018823E1F395
:1006200010921701B8CFA1E21A2EAA1BBB1BFD0125
:100630000DC0AA1FBB1FEE1FFF1FA217B307E407C1
:10064000F50720F0A21BB30BE40BF50B661F771F19
:10065000881F991F1A9469F76095709580959095F9
:100660009B01AC01BD01CF010895EE0FFF1F0024D7
:10067000001C0BBE0790F691E02D0994F894FFCF73
:10068000010000000000000200000000AC000000BB
:02069000000068
:00000001FF
