:100000000C9446000C9465000C9465000C946500FB
:100010000C9465000C9465000C9465000C946500CC
:100020000C9465000C9465000C9465000C946500BC
:100030000C9465000C94B4000C9465000C9465005D
:100040000C9465000C9465000C9465000C9465009C
:100050000C9465000C9465000C9465000C9465008C
:100060000C9465000C9465000C9465000C9465007C
:100070000C9465000C9465000C9465000C9465006C
:100080000C9465000C9465000C94650011241FBE4F
:10009000CFEFD0E4DEBFCDBF11E0A0E0B1E0EEE0F5
:1000A000F8E000E00BBF02C007900D92A631B10747
:1000B000D9F721E0A6E1B1E001C01D92A933B20752
:1000C000E1F70E944B030C9405040C940000CF93BD
:1000D000C82F8A3019F48DE00E9467008091C0001B
:1000E00085FFFCCFC093C60080E090E0CF910895DB
:1000F00060930401709305018093060190930701BA
:1001000060931A0170931B0180931C0190931D0151
:1001100008958BE0809381008DE790E090938900B3
:100120008093880082E080936F0010928500109287
:1001300084008091040190910501A0910601B09185
:10014000070180931A0190931B01A0931C01B093A7
:100150001D018FB780688FBF0895109281000895A8
:1001600081E080931E0108951F920F920FB60F92A7
:1001700011240BB60F922F933F934F935F936F937E
:100180007F938F939F93AF93BF93EF93FF93809150
:100190001A0190911B01A0911C01B0911D010197C2
:1001A000A109B10980931A0190931B01A0931C012E
:1001B000B0931D01892B8A2B8B2B91F40E94B000E8
:1001C0008091040190910501A0910601B091070171
:1001D00080931A0190931B01A0931C01B0931D0101
:1001E000FF91EF91BF91AF919F918F917F916F910F
:1001F0005F914F913F912F910F900BBE0F900FBECB
:100200000F901F9018950F931F93CF93DF93B62FE6
:10021000A72FF82FE92F022F132FD42FC52F04C09B
:10022000062F172FD82FC92F6B2F7A2F8F2F9E2F86
:10023000202F312F4D2F5C2F0E94E303B02FA12FD1
:10024000FD2FEC2F611571058105910549F7602F90
:10025000712F8D2F9C2FDF91CF911F910F910895BA
:10026000442349F021E030E002C0220F331F6A9599
:10027000E2F7822B089521E030E002C0220F331F05
:100280006A95E2F720958223089521E030E002C0CC
:10029000220F331F6A95E2F78223089540E064E05D
:1002A0008FEF0E94300188B9000086B160E0809530
:1002B0000E944501811180C086B161E080950E9455
:1002C000450181117BC086B162E080950E944501A5
:1002D000811176C086B163E080950E94450181114D
:1002E00071C040E065E08FEF0E94300188B90000E6
:1002F00086B160E080950E944501811165C086B19C
:1003000061E080950E944501811160C086B162E084
:1003100080950E94450181115BC086B163E08095A4
:100320000E944501811156C040E066E08FEF0E94B7
:10033000300188B9000086B160E080950E944501D7
:1003400081114AC086B161E080950E94450181110A
:1003500045C086B162E080950E944501811140C090
:1003600086B163E080950E94450181113BC040E069
:1003700067E08FEF0E94300188B9000086B160E02D
:1003800080950E94450181112FC086B161E0809562
:100390000E94450181112AC086B162E080950E94C9
:1003A0004501811125C086B163E080950E94450119
:1003B0008823F9F084E4089581E3089584E308959F
:1003C00087E308958AE2089582E3089585E3089516
:1003D00088E3089580E3089583E3089586E308950C
:1003E00089E3089583E2089581E4089582E40895FD
:1003F00083E4089540E050E00CC000002F5F3F4FC1
:1004000002C020E030E0273063E03607B4F34F5FEE
:100410005F4F48175907ACF308959BB19F7B9BB979
:1004200085B98BB180688BB900008BB18F778BB9A0
:1004300082E090E00E94FA01089581E00E940D029E
:100440000895813120F481580E940D02089581554C
:100450000E940D02089584E690E00E94FA0188E36C
:100460000E940D0286E00E940D028FE00E940D02A4
:1004700081E00E940D028AE090E00E94FA01089556
:100480009BB190649BB985B98BB180688BB9000032
:100490008BB18F778BB981E090E00E94FA010895CB
:1004A000EF92FF920F931F93CF93DF93182FEB01DF
:1004B0000E941D020EC001E0010F812F0E94210247
:1004C0007E018FEFE81AF80A88810E944002102FFF
:1004D000E70188818111EFCFDF91CF911F910F91BB
:1004E000FF90EF900895CF93DF93EC010E944E01AF
:1004F000C130D10571F0C230D10519F1CD2BC9F54C
:1005000081E00E9421028AE20E944002C1E0D0E024
:1005100032C0823379F481E00E94210280E20E949D
:10052000400281E10E9421028AE20E944002C2E070
:10053000D0E021C081E00E9421028AE20E944002B4
:100540001AC0853379F481E10E94210280E20E9481
:10055000400281E00E9421028AE20E944002C1E042
:10056000D0E009C081E10E9421028AE20E9440029B
:1005700002C0C1E0D0E0CE01DF91CF910895892B78
:1005800009F086C08091180190911901892B79F4A6
:100590008091000190910101409749F480E190E041
:1005A000909319018093180181E080931601809146
:1005B0001801909119018D30910549F420E230E045
:1005C000309301012093000121E020931701209135
:1005D00016012130C9F48031910530F48F5F0E94FB
:1005E000210280E20E944002809118010E942102B3
:1005F00083E20E94400280911801909119010197B5
:10060000909319018093180180911801909119011C
:10061000892B59F480911601813039F4109216011A
:100620000E94210280E20E944002809117018130E5
:10063000E9F480910001909101018032910530F43C
:100640008F5F0E94210280E20E944002809100019F
:100650000E94210283E20E94400280910001909159
:1006600001010197909301018093000180910001A5
:1006700090910101419760F480911701813041F41C
:100680001092170181E10E94210280E20E94400243
:1006900080E090E00895CF93DF9300D000D0CDB7F5
:1006A000DEB78FEF81B912B884B915B890EF97B95A
:1006B0009FE098B98AB91BB8AAE2B1E0BA83A983CE
:1006C000EFE1F1E0FC83EB831C9245E050E060E059
:1006D00070E011964D935D936D937C9314971596EE
:1006E0004D935D936D937C93189783E792E01A96F0
:1006F0009C938E931997108284E690E0A0E0B0E07E
:1007000081839283A383B48385839683A783B087F1
:100710008FEB92E0928781876AE070E080E090E062
:100720000E9478000E9489000E942B020E941D02F4
:10073000E12CF12C3CC0F701EE0FFF1F81E090E0AF
:100740008C0F9D1FE80FF91F00811181D8011596AC
:100750004D915D916D917C91189711968D919D9120
:100760000D90BC91A02D481759076A077B0781F4AB
:10077000D8011996ED91FC911A978C91082E000CD6
:10078000990B0995F80180831582168217821086CD
:10079000F80185819681A781B0850196A11DB11DC3
:1007A00085839683A783B087FFEFEF1AFF0A82E065
:1007B000E816F10408F4BFCF80911E018823E1F30D
:1007C00010921E01B5CFA1E21A2EAA1BBB1BFD0180
:1007D0000DC0AA1FBB1FEE1FFF1FA217B307E40720
:1007E000F50720F0A21BB30BE40BF50B661F771F78
:1007F000881F991F1A9469F7609570958095909558
:0E0800009B01AC01BD01CF010895F894FFCF1C
:10080E0010000100010000000000000200000000C6
:06081E006700000000006D
:00000001FF
