:100000000C9446000C9465000C9465000C946500FB
:100010000C9465000C9465000C9465000C946500CC
:100020000C9465000C9465000C9465000C946500BC
:100030000C9465000C94B4000C9465000C9465005D
:100040000C9465000C9465000C9465000C9465009C
:100050000C9465000C9465000C9465000C9465008C
:100060000C9465000C9465000C9465000C9465007C
:100070000C9465000C9465000C9465000C9465006C
:100080000C9465000C9465000C94650011241FBE4F
:10009000CFEFD0E4DEBFCDBF11E0A0E0B1E0E4E0FF
:1000A000F9E000E00BBF02C007900D92AE33B1073C
:1000B000D9F721E0AEE3B1E001C01D92A037B2074D
:1000C000E1F70E94B7030C9480040C940000CF93D6
:1000D000C82F8A3019F48DE00E9467008091C0001B
:1000E00085FFFCCFC093C60080E090E0CF910895DB
:1000F00060930401709305018093060190930701BA
:1001000060934201709343018093440190934501B1
:1001100008958BE0809381008DE790E090938900B3
:100120008093880082E080936F0010928500109287
:1001300084008091040190910501A0910601B09185
:1001400007018093420190934301A0934401B0932F
:1001500045018FB780688FBF089510928100089580
:1001600081E08093460108951F920F920FB60F927F
:1001700011240BB60F922F933F934F935F936F937E
:100180007F938F939F93AF93BF93EF93FF93809150
:10019000420190914301A0914401B0914501019722
:1001A000A109B1098093420190934301A0934401B6
:1001B000B0934501892B8A2B8B2B91F40E94B000C0
:1001C0008091040190910501A0910601B091070171
:1001D0008093420190934301A0934401B093450161
:1001E000FF91EF91BF91AF919F918F917F916F910F
:1001F0005F914F913F912F910F900BBE0F900FBECB
:100200000F901F9018950F931F93CF93DF93B62FE6
:10021000A72FF82FE92F022F132FD42FC52F04C09B
:10022000062F172FD82FC92F6B2F7A2F8F2F9E2F86
:10023000202F312F4D2F5C2F0E945E04B02FA12F55
:10024000FD2FEC2F611571058105910549F7602F90
:10025000712F8D2F9C2FDF91CF911F910F910895BA
:10026000442349F021E030E002C0220F331F6A9599
:10027000E2F7822B089521E030E002C0220F331F05
:100280006A95E2F720958223089521E030E002C0CC
:10029000220F331F6A95E2F78223089540E064E05D
:1002A0008FEF0E94300188B9000086B160E0809530
:1002B0000E944501811180C086B161E080950E9455
:1002C000450181117BC086B162E080950E944501A5
:1002D000811176C086B163E080950E94450181114D
:1002E00071C040E065E08FEF0E94300188B90000E6
:1002F00086B160E080950E944501811165C086B19C
:1003000061E080950E944501811160C086B162E084
:1003100080950E94450181115BC086B163E08095A4
:100320000E944501811156C040E066E08FEF0E94B7
:10033000300188B9000086B160E080950E944501D7
:1003400081114AC086B161E080950E94450181110A
:1003500045C086B162E080950E944501811140C090
:1003600086B163E080950E94450181113BC040E069
:1003700067E08FEF0E94300188B9000086B160E02D
:1003800080950E94450181112FC086B161E0809562
:100390000E94450181112AC086B162E080950E94C9
:1003A0004501811125C086B163E080950E94450119
:1003B0008823F9F084E4089581E3089584E308959F
:1003C00087E308958AE2089582E3089585E3089516
:1003D00088E3089580E3089583E3089586E308950C
:1003E00089E3089583E2089581E4089582E40895FD
:1003F00083E4089540E050E00CC000002F5F3F4FC1
:1004000002C020E030E0273063E03607B4F34F5FEE
:100410005F4F48175907ACF308959BB19F7B9BB979
:1004200085B98BB180688BB900008BB18F778BB9A0
:1004300082E090E00E94FA01089581E00E940D029E
:100440000895813120F481580E940D02089581554C
:100450000E940D02089584E690E00E94FA0188E36C
:100460000E940D0286E00E940D028FE00E940D02A4
:1004700081E00E940D028AE090E00E94FA01089556
:100480009BB190649BB985B98BB180688BB9000032
:100490008BB18F778BB981E090E00E94FA010895CB
:1004A000EF92FF920F931F93CF93DF93182FEB01DF
:1004B0000E941D020EC001E0010F812F0E94210247
:1004C0007E018FEFE81AF80A88810E944002102FFF
:1004D000E70188818111EFCFDF91CF911F910F91BB
:1004E000FF90EF900895CF93DF93EC01009719F000
:1004F0000197C1F041C080916E0190916F012091F0
:100500004001309141018217930771F12091000160
:10051000309101018217930751F10E944E018133FE
:1005200059F528C00E944E018133A9F481E090E082
:1005300090936F0180936E011092410110924001DF
:1005400080E190E090930101809300010E941D02E0
:10055000C0E0D0E011C081E00E9421026CE171E0B6
:1005600081E00E94500208C0C1E0D0E005C0C1E0B7
:10057000D0E002C0C1E0D0E0CE01DF91CF9108957C
:10058000CF93DF93EC010E944E01C130D105A9F059
:10059000C230D105B1F1CD2B09F057C081E00E94E6
:1005A00021028AE20E94400281E090E090936F0174
:1005B00080936E01C1E0D0E04AC08233A9F481E0AB
:1005C0000E94210280E20E94400281E10E942102F9
:1005D0008AE20E94400281E190E090936F01809353
:1005E0006E01C2E0D0E033C081E00E9421028AE2C5
:1005F0000E94400281E090E090936F0180936E0131
:1006000026C08533A9F481E10E94210280E20E9484
:10061000400281E00E9421028AE20E94400281E0C1
:1006200090E090936F0180936E01C1E0D0E00FC025
:1006300081E10E9421028AE20E94400281E190E071
:1006400090936F0180936E0102C0C1E0D0E0CE01B3
:10065000DF91CF910895892B09F086C080914001E8
:1006600090914101892B79F48091000190910101D1
:10067000409749F480E190E09093410180934001DC
:1006800081E080933E0180914001909141018D3045
:10069000910549F420E230E03093010120930001FC
:1006A00021E020933F0120913E012130C9F48031A7
:1006B000910530F48F5F0E94210280E20E94400287
:1006C000809140010E94210283E20E9440028091B9
:1006D0004001909141010197909341018093400125
:1006E0008091400190914101892B59F480913E0104
:1006F000813039F410923E010E94210280E20E9472
:10070000400280913F018130E9F480910001909195
:1007100001018032910530F48F5F0E94210280E256
:100720000E944002809100010E94210283E20E9407
:100730004002809100019091010101979093010185
:10074000809300018091000190910101419760F434
:1007500080913F01813041F410923F0181E10E947C
:10076000210280E20E94400280E090E00895CF9351
:10077000DF9300D000D000D0CDB7DEB78FEF81B9C6
:1007800012B884B915B890EF97B99FE098B98AB9B3
:100790001BB886E0E6E1F1E0DE01119601900D92D2
:1007A0008A95E1F7EDE5F1E0108285E090E0A0E0C8
:1007B000B0E081839283A383B48385839683A783E8
:1007C000B08720EC32E032872187E2E5F1E0108249
:1007D00044E650E060E070E04183528363837483B9
:1007E00045835683678370872BE233E03287218706
:1007F000E7E4F1E0108281839283A383B48385834D
:100800009683A783B08783E792E0928781876AE027
:1008100070E080E090E00E9478000E9489000E94D1
:100820002B020E941D02E12CF12C3CC0F701EE0FBF
:10083000FF1F81E090E08C0F9D1FE80FF91F0081E2
:100840001181D80115964D915D916D917C9118970C
:1008500011968D919D910D90BC91A02D481759072F
:100860006A077B0781F4D8011996ED91FC911A97DC
:100870008C91082E000C990B0995F8018083158244
:10088000168217821086F80185819681A781B0852E
:100890000196A11DB11D85839683A783B087FFEFC5
:1008A000EF1AFF0A83E0E816F10408F4BFCF809145
:1008B00046018823E1F310924601B5CFA1E21A2E3A
:1008C000AA1BBB1BFD010DC0AA1FBB1FEE1FFF1FF4
:1008D000A217B307E407F50720F0A21BB30BE40B44
:1008E000F50B661F771F881F991F1A9469F760958B
:1008F0007095809590959B01AC01BD01CF01089545
:04090000F894FFCF99
:1009040010000100010000000000000200000000CF
:100914006700000000005D01520147017E7E7E7E7B
:100924007E7E5052455353204F4E4520544F205203
:0E0934004553544152547E7E7E7E7E7E0000EE
:00000001FF
